:020000040800F2
:1000000000200020E52D0008050800080F08000862
:1000100000000000000000000000000000000000E0
:1000200000000000000000000000000017080008A9
:100030000000000000000000210800082B08000854
:10004000352E0008352E0008352E0008352E000804
:10005000352E0008352E0008352E0008352E0008F4
:1000600000000000352E0008352E0008352E00084F
:10007000352E0008352E0008352E0008352E0008D4
:10008000352E0008352E0008352E0008352E0008C4
:1000900000000000352E0008352E0008352E00081F
:1000A000352E0008352E0008352E0008352E0008A4
:0C00B000352E0008352E0008000000006E
:1000BC0010B5064C2378002B07D1054B002B02D032
:1000CC00044800E000BF0123237010BD5C00002039
:1000DC00000000002C350008044B10B5002B03D099
:1000EC000349044800E000BF10BDC04600000000FA
:1000FC00600000202C350008002243088B4274D38A
:10010C0003098B425FD3030A8B4244D3030B8B420C
:10011C0028D3030C8B420DD3FF22090212BA030C15
:10012C008B4202D31212090265D0030B8B4219D3F6
:10013C0000E0090AC30B8B4201D3CB03C01A524116
:10014C00830B8B4201D38B03C01A5241430B8B425E
:10015C0001D34B03C01A5241030B8B4201D30B0347
:10016C00C01A5241C30A8B4201D3CB02C01A52416E
:10017C00830A8B4201D38B02C01A5241430A8B4231
:10018C0001D34B02C01A5241030A8B4201D30B021A
:10019C00C01A5241CDD2C3098B4201D3CB01C01A34
:1001AC00524183098B4201D38B01C01A524143093E
:1001BC008B4201D34B01C01A524103098B4201D32C
:1001CC000B01C01A5241C3088B4201D3CB00C01A99
:1001DC00524183088B4201D38B00C01A5241430811
:1001EC008B4201D34B00C01A5241411A00D2014636
:1001FC00524110467047FFE701B5002000F006F8A9
:10020C0002BDC0460029F7D076E770477047C0465C
:10021C00002B11D1002A0FD1002900D1002802D0C7
:10022C000021C943080007B4024802A140180290FB
:10023C0003BDC046D9FFFFFF03B4684601B5029861
:10024C0000F006F8019B9E4602B00CBC7047C046FD
:10025C00F0B557464E464546DE46E0B504000D0067
:10026C009246994683B08B4230D82DD049465046A1
:10027C0000F0BAF829000600200000F0B5F8331A97
:10028C009846203B34D49B4653465A4693404246AC
:10029C001F00534693401E00AF423BD8AF4200D1E3
:1002AC0079E05B46A41BBD41002B00DA76E000220E
:1002BC0000230092019301235A469340019301239A
:1002CC0042469340009329E08242CFD9002200237A
:1002DC00009201930C9B002B01D01C605D60009878
:1002EC00019903B0F0BCBB46B246A946A046F0BD8E
:1002FC0042469B4620239B1A5246DA404146130045
:10030C004A468A40170042461F43534693401E00FC
:10031C00AF42C3D900220023009201934346002B25
:10032C00D8D0FB0772081A4346467B080EE0AB4256
:10033C0001D1A2420CD8A41A9D41012024196D416F
:10034C000021013E24184D41002E06D0AB42EED9BF
:10035C00013E24196D41002EF8D1009801995B469D
:10036C0000196941002B24DB2B005A464646D3402A
:10037C002A001C00F2405B461500002B2ADB2600ED
:10038C009E40330026004746BE403200801A9941F9
:10039C00009001919EE7A342BCD882E742462023FD
:1003AC0000219B1A0022009101920122DA40019255
:1003BC0085E7424620239B1A2A0046469A40230092
:1003CC00F340464613432A001C00F2405B461500DE
:1003DC00002BD4DA202342462F009B1B974026008B
:1003EC00DE403B003343CDE710B5002903D100F0CC
:1003FC0007F8203002E0080000F002F810BDC046FB
:10040C001C2101231B04984201D3000C10391B0A38
:10041C00984201D3000A08391B09984201D30009FC
:10042C00043902A2105C40187047C0460403020253
:10043C000101010100000000000000000023C25C6B
:10044C000133002AFBD1581E7047000003B47146DB
:10045C00490840004900095E49008E4403BC7047BE
:10046C0003008218934200D1704719700133F9E7E9
:10047C0070B500260C4C0D4D641BA410A64209D17E
:10048C00002603F04DF80A4C0A4D641BA410A6423A
:10049C0005D170BDB300EB5898470136EEE7B300B9
:1004AC00EB5898470136F2E78C3600088C3600087A
:1004BC00903600088C3600087047704770B5050000
:1004CC000C1E10D0043C2368002B00DAE418280022
:1004DC0000F0E0F81D4A1368002B05D1636014602E
:1004EC00280000F0DFF870BDA34208D9206821185D
:1004FC008B42F3D119685B6809182160EEE71A008A
:10050C005B68002B01D0A342F9D911685018A042A6
:10051C000BD120680918501811608342E0D118687B
:10052C005B68411811605360DAE7A04202D90C23D2
:10053C002B60D5E7206821188B4203D119685B68C2
:10054C000918216063605460CAE7C046BC010020F2
:10055C0070B50F4E0D0031680400002902D100F077
:10056C00A9F830602900200000F0A4F8431C03D146
:10057C0001256D42280070BD0323C51C9D43A84274
:10058C00F8D0291A200000F095F80130F2D1EFE7ED
:10059C00B8010020F7B50322CB1C934308330500A8
:1005AC001F000C2B34D20C27B94233D8280000F092
:1005BC0071F8374E33681C00002C2FD139002800FD
:1005CC00FFF7C6FF0400431C5FD134680094009B06
:1005DC00002B4AD1002C52D023682800E318009934
:1005EC00019300F067F8019B834248D123682800EF
:1005FC00FF1A3900FFF7ACFF013040D02368DB193C
:10060C00236033685A68002A33D1009B336019E0A9
:10061C00002BC9DA0C232B600020FEBD2168C91BFE
:10062C0020D40B290AD9E2192760A34204D13260E5
:10063C0063681160536005E05A60F9E76268A34291
:10064C000ED13260280000F02DF8200007220B306C
:10065C00231D9043C21A9842DFD01B1AA350DCE72B
:10066C005A60EFE723006468A6E7009C6368009378
:10067C00ADE71A005B68A342FBD10023DAE70C2339
:10068C0028002B6000F00EF8C6E70760DAE7C046DA
:10069C00BC01002010B50248FFF70EFF10BDC0468C
:1006AC00B401002010B50248FFF707FF10BDC0468B
:1006BC00B4010020002370B5064D040008002B6027
:1006CC0002F020FF431C03D12B68002B00D02360C9
:1006DC0070BDC046B001002080B500AF00F0B2F88C
:1006EC0000F004F802F002FBC046FDE790B593B0B1
:1006FC0000AF10243B19180038231A000021FFF713
:10070C00AFFE3B00180010231A000021FFF7A8FED3
:10071C0080239B00180000F06DFB3B1902221A602D
:10072C003B1980225200DA6021007B1800221A61EA
:10073C007B1840225A617B180222DA617B18022254
:10074C001A627B1800225A627B1808229A627B1864
:10075C0080229202DA627B18802292041A637B1840
:10076C00802292055A637B18180000F08FFB031E41
:10077C0001D000F019F83B0007221A603B0002225E
:10078C005A603B0000229A603B000022DA603B007A
:10079C000221180000F094FE031E01D000F004F8B2
:1007AC00C046BD4613B090BD80B500AFC046FDE756
:1007BC0080B582B000AF0F4B1A6C0E4B01210A436F
:1007CC001A640C4B1B6C012213407B607B68094B39
:1007DC00DA6B084B802149050A43DA63054BDA6B67
:1007EC0080235B0513403B603B68C046BD4602B0AE
:1007FC0080BDC0460010024080B500AFC046BD466B
:10080C0080BD80B500AFC046FDE780B500AFC046E7
:10081C00BD4680BD80B500AFC046BD4680BD80B52D
:10082C0000AF00F079F8C046BD4680BD80B500AF82
:10083C00034B802212059A60C046BD4680BDC0465F
:10084C0000ED00E080B582B000AFFB1D00221A70F5
:10085C000B4B1A680A4B802149000A431A6000208E
:10086C0000F010F8031E03D0FB1D01221A7001E0EA
:10087C00FFF79EFFFB1D1B781800BD4602B080BD24
:10088C000020024090B585B000AF78600F23FB18B4
:10089C0000221A701D4B1B78002B2BD01C4B1C6894
:1008AC001A4B1B781900FA239800FFF725FC03005C
:1008BC0019002000FFF720FC0300180000F0EFF8EF
:1008CC00031E12D17B68032B0AD8796801235B4283
:1008DC000022180000F0CEF80E4B7A681A600DE07A
:1008EC000F23FB1801221A7008E00F23FB180122BA
:1008FC001A7003E00F23FB1801221A700F23FB1848
:10090C001B781800BD4605B090BDC04658000020AD
:10091C00500000205400002080B500AF054B1B7820
:10092C001A00054B1B68D218034B1A60C046BD4613
:10093C0080BDC04658000020C001002080B500AF2B
:10094C00024B1B681800BD4680BDC046C00100208C
:10095C0090B583B000AF02003960FB1D1A70FB1D0F
:10096C001B787F2B28D82F4AFB1D1B785BB29B086A
:10097C00C0339B009B58FA1D1278110003220A40C9
:10098C00D200FF2191400A00D2431A4011003B686B
:10099C009B01FF221A40FB1D1B7818000323034008
:1009AC00DB009A401F48FB1D1B785BB29B080A4377
:1009BC00C0339B001A5031E01B4AFB1D1B781900F9
:1009CC000F230B40083B9B0806339B00D3180433C2
:1009DC001B68FA1D1278110003220A40D200FF2175
:1009EC0091400A00D2431A4011003B689B01FF2240
:1009FC001A40FB1D1B78180003230340DB009A40B0
:100A0C000948FB1D1B781C000F232340083B9B0847
:100A1C000A4306339B00C31804331A60C046BD4614
:100A2C0003B090BD00E100E000ED00E080B582B0C5
:100A3C0000AF78607B685A1E80235B049A4201D316
:100A4C00012310E00A4B7A68013A5A6001235B4299
:100A5C0003211800FFF77CFF054B00229A60044B22
:100A6C0007221A6000231800BD4602B080BDC046A4
:100A7C0010E000E080B584B000AFB9607A600F215F
:100A8C007B18021C1A70BA687B181B785BB21100B9
:100A9C001800FFF75DFFC046BD4604B080BD80B5B1
:100AAC0082B000AF78607B681800FFF7BFFF0300CF
:100ABC001800BD4602B080BD80B586B000AF78602E
:100ACC00396000237B6147E13B681B6801217A692F
:100ADC0091400A001340FB60FB68002B00D138E109
:100AEC003B685B6803221340012B05D03B685B68B5
:100AFC0003221340022B30D17B689B683B617B69DE
:100B0C005B0003229A401300DA433B6913403B61BC
:100B1C003B68DA687B695B009A4013003A691343BF
:100B2C003B617B683A699A607B685B683B61012238
:100B3C007B699A401300DA433B6913403B613B6885
:100B4C005B681B0901221A407B699A4013003A69C1
:100B5C0013433B617B683A695A603B685B680322CC
:100B6C001340032B17D07B68DB683B617B695B0010
:100B7C0003229A401300DA433B6913403B613B6804
:100B8C009A687B695B009A4013003A6913433B6196
:100B9C007B683A69DA603B685B6803221340022B7E
:100BAC0023D17B69DA087B6808329200D3583B6109
:100BBC007B69072213409B000F229A401300DA43F3
:100BCC003B6913403B613B681A697B6907210B4009
:100BDC009B009A4013003A6913433B617B69DA0826
:100BEC007B68083292003969D1507B681B683B6185
:100BFC007B695B0003229A401300DA433B69134084
:100C0C003B613B685B6803221A407B695B009A403E
:100C1C0013003A6913433B617B683A691A603B687D
:100C2C005A68C0239B02134000D192E0504A7B6962
:100C3C009B0818339B009B583B617B690322134034
:100C4C00DB000F229A401300DA433B6913403B61EF
:100C5C007A68A023DB059A4213D07B68454A9342FD
:100C6C000DD07B68444A934207D07B68434A934239
:100C7C0001D1032306E0052304E0022302E0012353
:100C8C0000E000237A6903210A40D20093403A69BC
:100C9C0013433B6136497B699B0818339B003A69C7
:100CAC005A50334B1B683B61FB68DA433B6913407A
:100CBC003B613B685A6880235B03134003D03A695D
:100CCC00FB6813433B612A4B3A691A60284B5B68FB
:100CDC003B61FB68DA433B6913403B613B685A68F4
:100CEC0080239B03134003D03A69FB6813433B6199
:100CFC001F4B3A695A601E4A8423D3583B61FB68E8
:100D0C00DA433B6913403B613B685A6880239B0282
:100D1C00134003D03A69FB6813433B6114498422A6
:100D2C003B698B50124A8023D3583B61FB68DA43F2
:100D3C003B6913403B613B685A6880235B0213405C
:100D4C0003D03A69FB6813433B61094980223B6934
:100D5C008B507B6901337B613B681A687B69DA4095
:100D6C00131E00D0B0E6C046C046BD4606B080BDDE
:100D7C00001802400004005000080050000C005005
:100D8C0080B584B000AF78600A00BB1C1A807B6809
:100D9C001B69BA1C1288134004D00F23FB180122C4
:100DAC001A7003E00F23FB1800221A700F23FB1894
:100DBC001B781800BD4604B080BD80B582B000AF72
:100DCC00786008001100BB1C021C1A807B1C0A1CDA
:100DDC001A707B1C1B78002B04D0BB1C1A887B68F8
:100DEC009A6103E0BB1C1A887B689A62C046BD46B8
:100DFC0002B080BD80B584B000AF7860194B1B6821
:100E0C00194A13401900174B7A680A431A607A681A
:100E1C0080239B009A421FD1144B1A6813005B006D
:100E2C009B185B0012491800FFF766F903000133A9
:100E3C00FB6008E0FB68002B03D0FB68013BFB6008
:100E4C0001E0032309E0074B5A698023DB001A40B9
:100E5C008023DB009A42EDD000231800BD4604B07D
:100E6C0080BDC04600700040FFF9FFFF500000201D
:100E7C0040420F0080B500AF034B9A68E023DB01C2
:100E8C0013401800BD4680BD0010024080B588B0EC
:100E9C0000AF78607B68002B01D10123FEE27B68F8
:100EAC001B680122134000D17CE0C34B9B683822A5
:100EBC001340BB61C04BDB68032213407B61BB69F1
:100ECC00102B02D17B69032B02D0BB69082B0BD1F1
:100EDC00B94B1A6880239B02134062D07B685B6815
:100EEC00002B5ED10123D9E27B685A6880235B0218
:100EFC009A4207D1B04B1A68AF4B802149020A4382
:100F0C001A6020E07B685A68A023DB029A420ED15B
:100F1C00A94B1A68A84B8021C9020A431A60A64B38
:100F2C001A68A54B802149020A431A600BE0A24BB8
:100F3C001A68A14BA1490A401A609F4B1A689E4B34
:100F4C009F490A401A607B685B68002B14D0FFF73E
:100F5C00F5FC03003B6108E0FFF7F0FC02003B6985
:100F6C00D31A642B01D9032398E2934B1A6880237C
:100F7C009B021340F0D015E0FFF7E0FC03003B614F
:100F8C0008E0FFF7DBFC02003B69D31A642B01D9A4
:100F9C00032383E2884B1A6880239B021340F0D111
:100FAC0000E0C0467B681B680222134000D199E028
:100FBC00814B9B6838221340BB617F4BDB6803225B
:100FCC0013407B61BB69102B02D17B69022B02D0D1
:100FDC00BB69002B35D1784B1A688023DB0013409A
:100FEC0005D07B68DB68002B01D1012356E2724BE4
:100FFC005B68744A134019007B685B691A026E4B7C
:10100C000A435A60BB69002B12D16B4B1B686E4AAA
:10101C00134019007B681A69674B0A431A60664BC8
:10102C001B68DB0A07221340684ADA40684B1A60D7
:10103C00684B1B681800FFF725FC031E51D00123D9
:10104C002CE27B68DB68002B30D05B4B1B685E4A64
:10105C00134019007B681A69574B0A431A60564BA8
:10106C001A68554B802149000A431A60FFF766FC49
:10107C0003003B6108E0FFF761FC02003B69D31AF7
:10108C00022B01D9032309E24B4B1A688023DB00A6
:10109C001340F0D0484B5B684A4A134019007B68F8
:1010AC005B691A02444B0A435A601BE0424B1A68B4
:1010BC00414B49490A401A60FFF740FC03003B6171
:1010CC0008E0FFF73BFC02003B69D31A022B01D965
:1010DC000323E3E1384B1A688023DB001340F0D183
:1010EC0000E0C0467B681B680822134047D0324B97
:1010FC009B6838221340182B0AD12F4B1B6E0222EF
:10110C0013403CD07B689B69002B38D10123C5E18F
:10111C007B689B69002B19D0274B1A6E264B01213B
:10112C000A431A66FFF70AFC03003B6108E0FFF76D
:10113C0005FC02003B69D31A022B01D90323ADE154
:10114C001D4B1B6E02221340F1D018E01A4B1A6E85
:10115C00194B01218A431A66FFF7F0FB03003B6130
:10116C0008E0FFF7EBFB02003B69D31A022B01D915
:10117C00032393E1104B1B6E02221340F1D17B68C9
:10118C001B680422134000D1C6E01F23FB18002269
:10119C001A70094B9B6838221340202B1ED1064B2A
:1011AC00DB6D0222134000D1B6E07B689B68002BFC
:1011BC0000D0B1E0012371E100100240FFFFFEFFFF
:1011CC00FFFFFBFFFF80FFFFFFC7FFFF0024F400C2
:1011DC005000002054000020FFFEFFFFB14BDA6BE3
:1011EC0080235B05134001D1012300E00023002B79
:1011FC0011D0AC4BDA6BAB4B802149050A43DA6357
:10120C00A84BDA6B80235B051340FB60FB681F2344
:10121C00FB1801221A70A44B1A6880235B00134040
:10122C001AD1A14B1A68A04B802149000A431A60BD
:10123C00FFF784FB03003B6108E0FFF77FFB020034
:10124C003B69D31A022B01D9032327E1964B1A6869
:10125C0080235B001340F0D07B689B68012B06D188
:10126C00904BDA6D8F4B01210A43DA651CE07B68E9
:10127C009B68052B0CD18B4BDA6D8A4B04210A43EE
:10128C00DA65884BDA6D874B01210A43DA650BE08E
:10129C00844BDA6D834B01218A43DA65814BDA6D1D
:1012AC00804B04218A43DA657B689B68002B14D041
:1012BC00FFF744FB03003B6109E0FFF73FFB020033
:1012CC003B69D31A794A934201D90323E6E0754B63
:1012DC00DB6D02221340F0D013E0FFF72FFB03006D
:1012EC003B6109E0FFF72AFB02003B69D31A6F4A06
:1012FC00934201D90323D1E06A4BDB6D02221340E8
:10130C00F0D11F23FB181B78012B05D1654BDA6B31
:10131C00644B67490A40DA637B68DB69002B00D1B8
:10132C00BBE0604B9B6838221340102B00D17BE054
:10133C007B68DB69022B56D15A4B1A68594B5D49B5
:10134C000A401A60FFF7FAFA03003B6108E0FFF766
:10135C00F5FA02003B69D31A022B01D903239DE055
:10136C00504B1A6880239B041340F0D14D4BDB6823
:10137C00514A134019007B681A6A7B685B6A1A43EE
:10138C007B689B6A1B021A437B68DB6A1A437B6887
:10139C001B6B1A437B685B6B1A43424B0A43DA6044
:1013AC00404B1A683F4B802149040A431A603D4B5D
:1013BC00DA683C4B802149050A43DA60FFF7BEFA34
:1013CC0003003B6108E0FFF7B9FA02003B69D31A4E
:1013DC00022B01D9032361E0324B1A6880239B0452
:1013EC001340F0D059E02F4B1A682E4B31490A406C
:1013FC001A60FFF7A3FA03003B6108E0FFF79EFABF
:10140C0002003B69D31A022B01D9032346E0254B7A
:10141C001A6880239B041340F0D1224BDA68214BCD
:10142C0026490A40DA6038E07B68DB69012B01D180
:10143C00012333E01B4BDB687B617B6903221A4081
:10144C007B681B6A9A4226D17B6970221A407B68A2
:10145C005B6A9A421FD17A69FE23DB011A407B68D2
:10146C009B6A1B029A4216D17A69F8239B031A4095
:10147C007B68DB6A9A420ED17A69E0231B051A401D
:10148C007B681B6B9A4206D17B695B0F5A077B68A2
:10149C005B6B9A4201D0012300E000231800BD468B
:1014AC0008B080BD0010024000700040881300009E
:1014BC00FFFFFFEFFFFFFFFE8C80C111FCFFFEEE74
:1014CC0080B584B000AF786039607B68002B01D1A7
:1014DC000123E9E0764B1B68072213403A689A42D5
:1014EC001ED9734B1B68072293431900704B3A6843
:1014FC000A431A60FFF722FA0300FB6009E0FFF7CA
:10150C001DFA0200FB68D31A6A4A934201D90323DD
:10151C00CAE0674B1B68072213403A689A42EED127
:10152C007B681B680222134015D07B681B68042261
:10153C00134006D0604B9A685F4BE021C9010A4307
:10154C009A605D4B9B685D4A134019007B689A68F2
:10155C00594B0A439A607B681B680122134057D091
:10156C007B685B68012B07D1534B1A6880239B0265
:10157C0013402BD1012397E07B685B68022B07D1CA
:10158C004D4B1A6880239B0413401FD101238BE021
:10159C007B685B68002B07D1474B1A688023DB0004
:1015AC00134013D101237FE07B685B68032B06D1CA
:1015BC00414B1B6E0222134008D1012374E03E4BB9
:1015CC00DB6D0222134001D101236DE03A4B9B6885
:1015DC000722934319007B685A68374B0A439A6079
:1015EC00FFF7ACF90300FB6009E0FFF7A7F9020075
:1015FC00FB68D31A2F4A934201D9032354E02E4B94
:10160C009B6838221A407B685B68DB009A42ECD1FD
:10161C00274B1B68072213403A689A421ED2244B70
:10162C001B68072293431900214B3A680A431A603E
:10163C00FFF784F90300FB6009E0FFF77FF9020074
:10164C00FB68D31A1B4A934201D903232CE0184B95
:10165C001B68072213403A689A42EED17B681B68DC
:10166C000422134009D0144B9B68154A13401900EF
:10167C007B68DA68104B0A439A6000F029F8010085
:10168C000D4B9B681B0A0F221A400E4B9200D3582D
:10169C001F2213400A00DA400B4B1A600B4B1B68DD
:1016AC001800FFF7EFF803001800BD4604B080BD2A
:1016BC00002002408813000000100240FFF0FFFFE2
:1016CC00FF8FFFFFD8350008500000205400002089
:1016DC0080B586B000AF3C4B9B68382213400FD1CD
:1016EC00394B1B68DB0A0722134001229A40130076
:1016FC003B6039683548FEF7FFFC03003B615DE059
:10170C00314B9B6838221340082B02D1304B3B6184
:10171C0054E02D4B9B6838221340102B38D12A4BA8
:10172C00DB6803221340FB60274BDB681B09072295
:10173C0013400133BB60FB68032B0DD1B9682448FF
:10174C00FEF7DAFC030019001F4BDB681B0A7F2233
:10175C0013404B437B610DE0B9681C48FEF7CCFC91
:10176C0003001900184BDB681B0A7F2213404B4304
:10177C007B61C046144BDB685B0F072213400133BF
:10178C007B6079687869FEF7B7FC03003B6115E074
:10179C000D4B9B6838221340202B03D180231B0256
:1017AC003B610BE0084B9B6838221340182B03D18C
:1017BC00FA23DB013B6101E000233B613B6918002C
:1017CC00BD4606B080BDC046001002400024F400A7
:1017DC0000127A0080B500AF024B1B681800BD46A2
:1017EC0080BDC04650000020B0B500AFFFF7F2FF3F
:1017FC000400FFF73FFB03001A0B054B9200D35874
:10180C001F221340DC4023001800BD46B0BDC0466B
:10181C001836000880B582B000AF78607B68002B6A
:10182C0001D101234AE07B683D229B5CDBB2002B9B
:10183C0007D17B683C22002199547B68180000F08A
:10184C0041F87B683D22022199547B681A687B68B9
:10185C0004331900100000F05FF97B684822012165
:10186C0099547B683E22012199547B683F220121C7
:10187C0099547B684022012199547B6841220121B3
:10188C0099547B684222012199547B68432201219F
:10189C0099547B684422012199547B68452201218B
:1018AC0099547B684622012199547B684722012177
:1018BC0099547B683D220121995400231800BD46A0
:1018CC0002B080BD80B582B000AF7860C046BD4626
:1018DC0002B080BD80B584B000AF78607B683D22DB
:1018EC009B5CDBB2012B01D0012335E07B683D22F0
:1018FC00022199547B681B68194A93420AD07B6871
:10190C001A688023DB059A4204D07B681B68154A51
:10191C00934216D17B681B689B68134A1340FB608B
:10192C00FB68062B16D0FA6880235B029A4211D012
:10193C007B681B681A687B681B6801210A431A6064
:10194C0008E07B681B681A687B681B6801210A43E6
:10195C001A6000E0C04600231800BD4604B080BDEC
:10196C00002C0140000400400700010080B584B049
:10197C0000AF786039600F23FB1800221A707B6867
:10198C003C229B5C012B01D10223BCE07B683C22F6
:10199C00012199547B683D22022199547B681B6874
:1019AC009B68BB60BB685A4A1340BB60BB68594A12
:1019BC001340BB607B681B68BA689A603B681B6805
:1019CC0080229201934240D080229201934200D90E
:1019DC0088E080225201934200D188E0802252019B
:1019EC00934200D97EE0702B18D000D97AE0602B9E
:1019FC004FD000D976E0502B3BD000D972E0402B71
:101A0C0057D000D96EE0302B63D06BD8202B60D030
:101A1C0068D8002B5DD0102B5BD063E07B68186816
:101A2C003B6899683B685A683B68DB6800F096F93C
:101A3C007B681B689B68BB60BB6877221343BB60E9
:101A4C007B681B68BA689A6052E07B6818683B68D0
:101A5C0099683B685A683B68DB6800F07FF97B68E3
:101A6C001B689A687B681B688021C9010A439A60CD
:101A7C003EE07B6818683B6859683B68DB681A0075
:101A8C0000F0CAF87B681B685021180000F04AF976
:101A9C002EE07B6818683B6859683B68DB681A0065
:101AAC0000F002F97B681B686021180000F03AF91D
:101ABC001EE07B6818683B6859683B68DB681A0055
:101ACC0000F0AAF87B681B684021180000F02AF986
:101ADC000EE07B681A683B681B681900100000F068
:101AEC0021F905E00F23FB1801221A7000E0C04613
:101AFC007B683D22012199547B683C22002199543A
:101B0C000F23FB181B781800BD4604B080BDC046DF
:101B1C0088FFCEFFFF00FFFF80B584B000AF786078
:101B2C0039607B681B68FB607B68354A934208D040
:101B3C007A688023DB059A4203D07B68314A934252
:101B4C0008D1FB6870229343FB603B685B68FA68C2
:101B5C001343FB607B682A4A934214D07A68802333
:101B6C00DB059A420FD07B68264A93420BD07B68E8
:101B7C00254A934207D07B68244A934203D07B6862
:101B8C00234A934208D1FB68224A1340FB603B680E
:101B9C00DB68FA681343FB60FB68802293431A00EE
:101BAC003B685B691343FB603B689A687B68DA624D
:101BBC003B681A687B689A627B68114A934207D02B
:101BCC007B68124A934203D07B68114A934203D13B
:101BDC003B681A697B681A637B681B6804221A438A
:101BEC007B681A607B6801225A61BFF34F8FC04635
:101BFC007B68FA681A60C046BD4604B080BDC0461A
:101C0C00002C014000040040002000400044014032
:101C1C0000480140FFFCFFFF80B586B000AFF860C4
:101C2C00B9607A60FB681B6A7B61FB681B6A0122E6
:101C3C0093431A00FB681A62FB68184A934207D058
:101C4C00FB68174A934203D0FB68164A934206D1AD
:101C5C00FB681B6A042293431A00FB681A62FB6838
:101C6C009B693B613B69F02293433B617B681B01A1
:101C7C003A6913433B617B690A2293437B617A691E
:101C8C00BB6813437B61FB683A699A61FB687A69AC
:101C9C001A62C046BD4606B080BDC046002C01404D
:101CAC00004401400048014080B586B000AFF860A8
:101CBC00B9607A60FB681B6A7B61FB681B6A102247
:101CCC0093431A00FB681A62FB68144A934206D1CC
:101CDC00FB681B6A402293431A00FB681A62FB687C
:101CEC009B693B613B690E4A13403B617B681B035C
:101CFC003A6913433B617B69A02293437B61BB68C8
:101D0C001B017A6913437B61FB683A699A61FB6832
:101D1C007A691A62C046BD4606B080BD002C0140EF
:101D2C00FF0FFFFF80B584B000AF786039607B682F
:101D3C009B68FB60FB68084A1340FB603A68FB68D1
:101D4C00134307221343FB607B68FA689A60C04612
:101D5C00BD4604B080BDC0468FFFCFFF80B586B0B6
:101D6C0000AFF860B9607A603B60FB689B687B6190
:101D7C007B69094A13407B613B681A027B681A43F2
:101D8C00BB6813437A6913437B61FB687A699A6079
:101D9C00C046BD4606B080BDFF00FFFF80B582B0D7
:101DAC0000AF78607B68002B01D1012346E07B6893
:101DBC0088229B58002B07D17B68842200219954E0
:101DCC007B68180000F040F87B6888222421995029
:101DDC007B681B681A687B681B6801218A431A6040
:101DEC007B689B6A002B03D07B68180000F05AFBC1
:101DFC007B68180000F0DEF80300012B01D10123F1
:101E0C001CE07B681B685A687B681B680D490A409C
:101E1C005A607B681B689A687B681B682A218A4316
:101E2C009A607B681B681A687B681B6801210A43EF
:101E3C001A607B68180000F0E9FB03001800BD462F
:101E4C0002B080BDFFB7FFFF80B582B000AF7860F5
:101E5C00C046BD4602B080BD80B58AB002AFF86006
:101E6C00B9603B60BB1D1A80FB6888229B58202BF5
:101E7C0000D09AE0BB68002B03D0BB1D1B88002B45
:101E8C0001D1012392E0FB689A6880235B019A429E
:101E9C0009D1FB681B69002B05D1BB6801221340DB
:101EAC0001D0012382E0FB68902200219950FB684D
:101EBC00882221219950FEF741FD03007B61FB68CC
:101ECC00BA1D542112885A52FB68BA1D5621128829
:101EDC005A52FB689A6880235B019A4208D1FB68CE
:101EEC001B69002B04D10023FB61BB68BB6103E0C1
:101EFC00BB68FB610023BB613AE07A69F8683B6818
:101F0C00009313000022802100F02AFC031E05D050
:101F1C00FB68882220219950032347E0FB69002BA2
:101F2C000BD1BB691B881A00FB681B68D205D20D4C
:101F3C009A62BB690233BB6107E0FB691A78FB68E4
:101F4C001B689A62FB690133FB61FB6888229B5812
:101F5C0021221340212B09D1FB6856229B5A9BB29C
:101F6C00013B99B2FB685622995201E001231DE016
:101F7C00FB6856229B5A9BB2002BBED17A69F8683B
:101F8C003B68009313000022402100F0E9FB031E84
:101F9C0005D0FB68882220219950032306E0FB68BA
:101FAC00882220219950002300E002231800BD460E
:101FBC0008B080BDB0B590B000AF78621A23202273
:101FCC009B18DB1900221A707B6A9A687B6A1B6962
:101FDC001A437B6A5B691A437B6ADB691343FB63B5
:101FEC007B6A1B681B68C44A134019007B6A1A6819
:101FFC00FB6B0B4313607B6A1B685B68BF4A134027
:10200C0018007B6AD9687B6A1A6803000B4353601B
:10201C007B6A9B69FB637B6A1B68B94A934204D059
:10202C007B6A1B6AFA6B1343FB637B6A1B689B68B6
:10203C00B44A134019007B6A1A68FB6B0B4393601C
:10204C007B6A1B68DB6A0F22934318007B6A596A10
:10205C007B6A1A6803000B43D3627B6A1B68AA4A2B
:10206C00934231D1A94B5B6D03221340032B1DD03E
:10207C0023D8022B0CD020D8002B02D0012B0ED051
:10208C001BE01B2320229B18DB1900221A7071E025
:10209C001B2320229B18DB1902221A706AE01B23D7
:1020AC0020229B18DB1904221A7063E01B232022C8
:1020BC009B18DB1908221A705CE01B2320229B184A
:1020CC00DB1910221A7055E07B6A1B68904A934208
:1020DC0006D11B2320229B18DB1900221A7049E021
:1020EC007B6A1B68864A93423ED1884B5A6DC0234B
:1020FC001B011340C0221201934227D0C0221201AF
:10210C0093422AD880221201934211D080221201CC
:10211C00934222D8002B04D08022D20093420ED0BE
:10212C001BE01B2320229B18DB1900221A7021E0D4
:10213C001B2320229B18DB1902221A701AE01B2386
:10214C0020229B18DB1904221A7013E01B23202277
:10215C009B18DB1908221A700CE01B2320229B18F9
:10216C00DB1910221A7005E01B2320229B18DB19A7
:10217C0010221A707B6A1B68614A934200D092E06D
:10218C001B2320229B18DB191B78082B15D018DC7D
:10219C00042B0DD015DC002B02D0022B05D010E047
:1021AC00FFF722FB03007B6314E05A4B7B6311E0C7
:1021BC00FFF78EFA03007B630CE080231B027B632A
:1021CC0008E000237B631A2320229B18DB190122D1
:1021DC001A70C0467B6B002B00D147E17B6A5A6AB0
:1021EC004D4B5200D35A1900786BFDF785FF030055
:1021FC00BB627B6A5A6813005B009B18BA6A9A42EE
:10220C0005D37B6A5B681B03BA6A9A4206D91A2308
:10221C0020229B18DB1901221A7027E17B6BBB6112
:10222C000023FB617B6A5A6A3B4B5200D35A3B61D9
:10223C0000237B613A697B69B869F969FDF7E8FFAE
:10224C0002000B00110E1D020D4314027B6A5B6829
:10225C005B08BB600023FB60B868F9680019694132
:10226C007B6A5B683B6000237B603A687B68FDF7A8
:10227C00CFFF02000B0013003B633A6BC0239B00A3
:10228C009A4209D33A6B80235B039A4204D27B6A4D
:10229C001B683A6BDA60E9E01A2320229B18DB19E1
:1022AC0001221A70E2E07B6ADA6980231B029A42EF
:1022BC0000D083E01B2320229B18DB191B78082BF2
:1022CC0015D02BDC042B0DD028DC002B02D0022BDC
:1022DC0005D023E0FFF788FA03007B6327E00D4B62
:1022EC007B6324E0FFF7F4F903007B631FE080239A
:1022FC001B027B631BE0C046F369FFCFFFCFFFFFE0
:10230C0000800040FFF4FF11003801400010024033
:10231C00004400400024F4003836000800237B639E
:10232C001A2320229B18DB1901221A70C0467B6BE2
:10233C00002B00D19AE07B6A5A6A584B5200D35A50
:10234C001900786BFDF7D8FE03005A007B6A5B68B6
:10235C005B08D2187B6A5B6819001000FDF7CCFE95
:10236C0003003B633B6B0F2B21D93A6B80235B0241
:10237C009A421CD23B6B9AB20E2020240319DB1913
:10238C000F218A431A803B6B5B089BB207221340D8
:10239C0099B20319DB190219D21912880A431A804F
:1023AC007B6A1B680219D2191288DA605EE01A2364
:1023BC0020229B18DB1901221A7057E01B232022C4
:1023CC009B18DB191B78082B15D018DC042B0DD0AF
:1023DC0015DC002B02D0022B05D010E0FFF704FA1D
:1023EC0003007B6314E02E4B7B6311E0FFF770F965
:1023FC0003007B630CE080231B027B6308E000235B
:10240C007B631A2320229B18DB1901221A70C04609
:10241C007B6B002B2AD07B6A5A6A204B5200D35A12
:10242C001900786BFDF768FE03001A007B6A5B6885
:10243C005B08D2187B6A5B6819001000FDF75CFE24
:10244C0003003B633B6B0F2B0AD93A6B80235B0277
:10245C009A4205D23B6B9AB27B6A1B68DA6005E044
:10246C001A2320229B18DB1901221A707B6A6A221C
:10247C00012199527B6A6822012199527B6A0022C0
:10248C005A677B6A00229A671A2320229B18DB1951
:10249C001B781800BD4610B0B0BDC04638360008D9
:1024AC000024F40080B582B000AF78607B689B6A32
:1024BC00082213400BD07B681B685B684A4A1340A8
:1024CC0019007B689A6B7B681B680A435A607B68AF
:1024DC009B6A012213400BD07B681B685B68434AE4
:1024EC00134019007B68DA6A7B681B680A435A60E0
:1024FC007B689B6A022213400BD07B681B685B686D
:10250C003B4A134019007B681A6B7B681B680A43B3
:10251C005A607B689B6A042213400BD07B681B6853
:10252C005B68344A134019007B685A6B7B681B68E4
:10253C000A435A607B689B6A102213400BD07B685D
:10254C001B689B682C4A134019007B68DA6B7B680C
:10255C001B680A439A607B689B6A202213400BD04D
:10256C007B681B689B68254A134019007B681A6CB2
:10257C007B681B680A439A607B689B6A4022134005
:10258C001DD07B681B685B681D4A134019007B6873
:10259C005A6C7B681B680A435A607B685A6C8023B0
:1025AC005B039A420BD17B681B685B68154A13402E
:1025BC0019007B689A6C7B681B680A435A607B68BD
:1025CC009B6A802213400BD07B681B685B680E4AA9
:1025DC00134019007B68DA6C7B681B680A435A60ED
:1025EC00C046BD4602B080BDFF7FFFFFFFFFFDFF71
:1025FC00FFFFFEFFFFFFFBFFFFEFFFFFFFDFFFFF14
:10260C00FFFFEFFFFFFF9FFFFFFFF7FF80B592B0CB
:10261C0002AF78607B68902200219950FEF78EF90A
:10262C000300FB637B681B681B6808221340082BA4
:10263C002DD1FB6B802291037868474A00920022CF
:10264C0000F08EF8031E22D0EFF310837B627B6ABE
:10265C00BB630123BB62BB6A83F31088C0467B68F3
:10266C001B681A687B681B6880218A431A60BB6BE5
:10267C00FB62FB6A83F31088C0467B6888222021AA
:10268C0099507B68842200219954032360E07B6875
:10269C001B681B6804221340042B46D1FB6B802261
:1026AC00D10378682C4A0092002200F059F8031EDE
:1026BC003BD0EFF31083FB60FB687B6301233B6132
:1026CC003B6983F31088C0467B681B681A687B687B
:1026DC001B6822490A401A607B6B7B617B6983F320
:1026EC001088C046EFF31083BB61BB693B630123C9
:1026FC00FB61FB6983F31088C0467B681B689A6892
:10270C007B681B6801218A439A603B6B3B623B6A86
:10271C0083F31088C0467B688C22202199507B68FB
:10272C00842200219954032312E07B688822202103
:10273C0099507B688C22202199507B680022DA66A4
:10274C007B6800221A677B6884220021995400233D
:10275C001800BD4610B080BDFFFFFF01DFFEFFFF7C
:10276C0080B584B000AFF860B9603B60FB1D1A7097
:10277C0051E0BB6901334ED0FEF7E0F802003B6834
:10278C00D31ABA699A4202D3BB69002B01D1032335
:10279C0051E0FB681B681B68042213403BD0BB68EC
:1027AC00802B38D0BB68402B35D0FB681B68DB69AD
:1027BC0008221340082B11D1FB681B6808221A62EF
:1027CC00FB68180000F03CF8FB6890220821995037
:1027DC00FB6884220021995401232CE0FB681B68C0
:1027EC00DA6980231B011A4080231B019A4212D103
:1027FC00FB681B68802212011A62FB68180000F04B
:10280C001FF8FB68902220219950FB68842200213C
:10281C00995403230FE0FB681B68DB69BA6813400B
:10282C00BA68D31A5A425341DBB21A00FB1D1B780B
:10283C009A429ED000231800BD4604B080BD000013
:10284C0080B58EB000AF7860EFF310837B617B694D
:10285C007B630123BB61BB6983F31088C0467B6833
:10286C001B681A687B681B6826490A401A607B6BD8
:10287C00FB61FB6983F31088C046EFF310833B6266
:10288C003B6A3B6301237B627B6A83F31088C046FF
:10289C007B681B689A687B681B681B490A409A60B6
:1028AC003B6BBB62BB6A83F31088C0467B68DB6EF4
:1028BC00012B18D1EFF31083BB60BB68FB620123C3
:1028CC00FB60FB6883F31088C0467B681B681A6842
:1028DC007B681B6810218A431A60FB6A3B613B6969
:1028EC0083F31088C0467B688C22202199507B682A
:1028FC000022DA667B6800225A67C046BD460EB0DD
:10290C0080BDC046DFFEFFFFFEFFFFEF80B584B049
:10291C0000AF0200FB1D1A70FB1D1B785A1E934161
:10292C00DAB20F217B181A707B181A78A023DB05FA
:10293C0020211800FEF741FAC046BD4604B080BD08
:10294C0080B582B000AF0200BB1D1A80054B1B681E
:10295C005B6A9AB2BB1D1B88D31A9BB21800BD468A
:10296C0002B080BD5802002080B584B000AF0200D8
:10297C00BB1D1A800B4B1B685A6A0E23FB181A805E
:10298C00C0460E23FB181B881800FFF7D9FF030065
:10299C001A00BB1D1B889342F3D8C046C046BD46E7
:1029AC0004B080BD5802002080B582B000AF7860C2
:1029BC007B681800FDF742FD03009AB27968044861
:1029CC006423FFF749FAC046BD4602B080BDC0463D
:1029DC00C401002090B58DB000AF1C243B19180029
:1029EC0014231A000021FDF73BFD0C23FB181800E3
:1029FC0010231A000021FDF733FD6D4B5A6B6C4B05
:102A0C0001210A435A636A4B5B6B01221340BB6082
:102A1C00BB68674BDA6B664B802189020A43DA6329
:102A2C00634BDA6B80239B0213407B607B68604BAB
:102A3C00DA6B5F4B01210A43DA635D4BDB6B0122DE
:102A4C0013403B603B683B1920221A603B19012262
:102A5C005A603B1900229A603B190022DA603A193D
:102A6C00A023DB0511001800FEF726F80020FFF765
:102A7C004DFF3B1901221A603B1901225A603B1988
:102A8C0000229A603B190022DA603A19A023DB0578
:102A9C0011001800FEF710F8A023DB05002201211D
:102AAC001800FEF78AF93B1902221A603B19002222
:102ABC005A603B1900229A603A19A023DB051100D9
:102ACC001800FDF7F9FF21007B180C221A607B1807
:102ADC0002225A607B1800229A607B180222DA606C
:102AEC007B1801221A617A18A023DB05110018004B
:102AFC00FDF7E2FF2F4B304A1A602E4BE1225202B7
:102B0C005A602C4B00229A602A4B0022DA60294B27
:102B1C0000221A61274B0C225A61264B00229A6123
:102B2C00244B0022DA61234B00221A62214B002233
:102B3C005A62204B00229A621E4B1800FFF72EF9A6
:102B4C00031E01D0FDF730FE1C4B8022D2051A600B
:102B5C001A4B3F225A60194B00229A60174B184AA5
:102B6C00DA60164B00221A61144B00229A61134B47
:102B7C001800FEF74FFE031E01D0FDF715FE0C21C9
:102B8C007B18802252011A607A180C4B1100180025
:102B9C00FEF7ECFE031E05D1084B1800FEF79AFE5B
:102BAC00031E01D0FDF700FEC046BD460DB090BD22
:102BBC0000100240C40100200044004058020020D4
:102BCC00FFFF000080B584B000AF0200FB1D1A703F
:102BDC003B1D0A1C1A80134B1B685A6A0E23FB18E8
:102BEC001A800DE00E23FB181B881800FFF7A8FEB7
:102BFC0003001A003B1D1B88934201D800230CE0F4
:102C0C00A023DB0502211800FEF7BAF803001A0016
:102C1C00FB1D1B789342E5D101231800BD4604B07F
:102C2C0080BDC04658020020B0B584B000AF7860BB
:102C3C00A023DB05002201211800FEF7BEF80220BC
:102C4C00FFF792FEA023DB05012201211800FEF7FD
:102C5C00B4F80A20FFF788FEA023DB05002201212F
:102C6C001800FEF7AAF81F4B19000120FFF7AAFF66
:102C7C00031E01D1002330E01B4B1B685A6A0E2344
:102C8C00FB181A80174B19000020FFF79BFF031E3F
:102C9C0001D1002321E00C257C190E23FB181B8885
:102CAC001800FFF74DFE030023807B191B88002BB7
:102CBC0004D07B191B880B4A934201D900230CE0EA
:102CCC000C23FB181B881D333A211800FDF714FA4E
:102CDC0003001A007B681A6001231800BD4604B07B
:102CEC00B0BDC046307500005802002080B596B0CB
:102CFC0000AFFDF723FE03007B65FDF71FFE03000D
:102D0C003B654F23FB1800221A70FFF763FE2E4B16
:102D1C001800FFF749FEFDF711FE0300BB64BA6C07
:102D2C007B6DD31AF7D4BB6CF533FF337B6544232F
:102D3C00FB181800FFF778FF031E03D10020FFF7E4
:102D4C00E5FDE8E77B6C092B0DD80120FFF7DEFDD4
:102D5C007B6C1E4A381D402100F068F83B1D1800A2
:102D6C00FFF722FED7E77B6C1E2B1FD87B6C184A13
:102D7C00381D402100F05AF83B1D1800FFF714FED7
:102D8C00BA6C3B6DD31AC6D4BB6CF533FF333B65C1
:102D9C004F217B181B785A425341DAB27B181A70B8
:102DAC007B181B781800FFF7B1FDB4E70020FFF784
:102DBC00ADFD7B6C074A381D402100F037F83B1DF8
:102DCC001800FFF7F1FDA6E7443500086835000848
:102DDC008C350008BC3500080D488546FDF726FDEE
:102DEC000C480D490D4A002302E0D458C45004335A
:102DFC00C4188C42F9D30A4A0A4C002301E0136030
:102E0C000432A242FBD3FDF733FBFDF765FCFEE772
:102E1C0000200020000000205C00002094360008F8
:102E2C005C000020A8020020FEE700000CB430B5C6
:102E3C00174B0C001D689DB0002908DA8B2301206C
:102E4C002B6040421DB030BC08BC02B01847822336
:102E5C0002A99B008B81002302904B6608619C4267
:102E6C0000D0631E8B604B6101235B42CB81280039
:102E7C0021AB209A019300F071F8431C01DA8B23EB
:102E8C002B60002CDED00022029B1A70DAE7C046C1
:102E9C0000000020F0B58E6885B01F000C003300D8
:102EAC0002900392BE4254D80C22885E9022D2002B
:102EBC0010422CD00322096923685B1A01936369C1
:102ECC005343019ADD0FED187B1C6D109B182A00E3
:102EDC00AB4201D91D001A00400527D511000298FC
:102EEC00FDF758FB061E2AD0019A216900F0C9FA99
:102EFC00A289194B1A4080231343A381019B26619D
:102F0C00F618266065613E00ED1A3B00A5601F00B7
:102F1C003A000399206800F097FA0020A3689B1BE5
:102F2C00A3602368DB19236005B0F0BD029800F0A4
:102F3C00B1FA061EE2D121690298FDF7BFFA0C2303
:102F4C000120029A40421360A28934331343A381B7
:102F5C00EAE73E00DCE7C0467FFBFFFFF0B59FB021
:102F6C0002901D008B890F0016001B0612D50B69F1
:102F7C00002B0FD14021FDF70DFB38603861002884
:102F8C0006D10C23029A1360012040421FB0F0BD01
:102F9C0040237B61002306AC6361203363761033DE
:102FAC00A376059535002B78002B01D0252B48D125
:102FBC00AB1B0393B5420BD0320039000298FFF7DC
:102FCC0069FF013000D1AAE06369039A9B18636121
:102FDC002B78002B00D1A2E0012253210023524276
:102FEC00626002AA52186E1C2360E360A360137027
:102FFC00A365524B052218003178039300F036FA82
:10300C00751C226800281ED1D30604D5202302A9E2
:10301C00533009180B70130704D553202B2302A926
:10302C0009180B7033782A2B15D0350000210A2093
:10303C00E3682A786E1C303A092A4ED9002910D13F
:10304C0016E00135AFE7039B2E00C01A0123834025
:10305C0013432360CDE7059B191D1B680591002BBD
:10306C0001DBE36004E05B42E36002231343236073
:10307C002B782E2B0CD16B782A2B33D1059B023558
:10308C001A1D1B680592002B01DA01235B42636059
:10309C002B4E03223000297800F0E8F9002806D0E6
:1030AC004023801B83402268013513432360297819
:1030BC00062224486E1C217600F0D8F9002834D062
:1030CC002148002821D10722059B0733934308335D
:1030DC00059363691B18636164E743433500012161
:1030EC009B18A6E700230A201900013563602A7893
:1030FC006E1C303A092A03D9002BC9D06160C7E78E
:10310C004143350001238918F1E705AA00922100FB
:10311C003A000E4B029800E000BF431CD9D1BB898A
:10312C005B0600D530E7606930E705AA0092210004
:10313C003A00064B029800F07BF8EEE75036000898
:10314C00563600085A36000800000000A12E000870
:10315C00F7B5160001938A680B690C000090934236
:10316C0000DA13002200336043321278002A01D0B7
:10317C000133336023689B0602D533680233336016
:10318C002268062315001D401A4227D02300433322
:10319C001B785A1E93412268920630D42200019962
:1031AC000098089D4332A847013025D00622236899
:1031BC0000251340042B05D13368E568ED1AEB4369
:1031CC00DB171D40A3682269934201DD9B1AED18A1
:1031DC000026B54220D1002010E00135E3683268AA
:1031EC009B1AAB42D2DD2200012301990098089F63
:1031FC001932B8470130F0D101204042FEBD3020D9
:10320C00E1184331087021005A1C45310978A21885
:10321C00433202331170C1E7220001230199009857
:10322C00089F1A32B8470130E6D00136D1E70000CA
:10323C00F0B58BB006920A004332079305900392C7
:10324C000A7E0C00109B782A09D8622A0BD8002A17
:10325C0000D1BBE07A490491582A00D18FE02500B7
:10326C0042352A7022E0100063381528F7D8FDF794
:10327C00EDF816001F00F6FFF6FFF6FFF6FF1F0035
:10328C00F6FFF6FFF6FFF6FFA00036007F00F6FF14
:10329C00F6FFB100F6FF3600F6FFF6FF83002500BF
:1032AC001A684235111D196013682B7001239FE0B9
:1032BC0018680968021D0D060BD506681A60002EE9
:1032CC0003DA2D23039A764213705D4B0A2704937D
:1032DC0019E006681A604906F1D536B2EFE71A68AC
:1032EC00096840CA080602D4490600D5B6B21A606D
:1032FC00237E534A0A2704926F2B00D1023F2300EE
:10330C00002243331A706368A360002B06DB042190
:10331C002268039D8A43226033430CD0039D300006
:10332C003900FCF76FFF049B013D5B5C2B70330095
:10333C0006009F42F3D9082F09D12368DB0706D575
:10334C00626823699A4202DC3023013D2B70039B97
:10335C005B1B2361079B210000930598069B09AA20
:10336C00FFF7F6FE013048D1012040420BB0F0BD12
:10337C00202209680A4322607822324904912100F4
:10338C0045310A701968226840C9100602D45006EB
:10339C0000D5B6B21960D30702D52023134323609E
:1033AC00002E01D01027AAE7202223689343236024
:1033BC00F8E71A680D68101D4969186013682E0625
:1033CC0001D5196002E06D06FBD519800023039D21
:1033DC002361BFE71A68111D1960156800212800C8
:1033EC00626800F043F8002801D0401B60606368FD
:1033FC0023610023039A1370ACE72A002369069912
:10340C000598079DA8470130AED023689B0715D4BB
:10341C00099BE0689842A9DA1800A7E7220001236B
:10342C0006990598079E1932B04701309CD001359A
:10343C00E368099A9B1AAB42F0DCE9E70025F7E751
:10344C00613600087236000810B5884202D98B1814
:10345C00984208D300239A4207D0CC5CC454013361
:10346C00F9E78B5C8354013AFBD210BDC9B28218C8
:10347C00904201D10020704703788B42FBD0013081
:10348C00F6E7002310B59A4200D110BDCC5CC454B1
:10349C000133F8E7F7B506000C001500002905D13B
:1034AC001100FDF777F804002000FEBD002A03D1BF
:1034BC00FDF704F82C00F7E700F01CF80700854234
:1034CC0002D84308AB42EFD329003000FDF762F875
:1034DC000190002801D1019CE6E72A00BD4200D9E9
:1034EC003A0021000198FFF7CCFF21003000FCF7D7
:1034FC00E5FFF0E70B1F1B68181F002B01DA0B58B8
:10350C00C0187047044A03001068002802D0C31882
:10351C00136070470148FAE7A4020020A8020020BB
:10352C00F8B5C046F8BC08BC9E467047F8B5C04616
:08353C00F8BC08BC9E46704774
:1035440048432D535230342064697374616E63654B
:10355400206D6F6E69746F722072656164790D0AF3
:103564000000000044697374616E63653A20256C41
:103574007520636D0D0A53544F503A20746F6F20B9
:10358400636C6F73650D0A0044697374616E6365DF
:103594003A20256C7520636D0D0A43617574696F5B
:1035A4006E3A206F626A65637420617070726F6135
:1035B4006368696E670D0A0044697374616E6365BC
:1035C4003A20256C7520636D0D0A436C6561720D9C
:1035D4000A000000000000000000000000000000DD
:1035E40000000000000000000000000000000000D7
:1035F40000000000010000000200000003000000C1
:10360400040000000600000007000000080000009D
:10361400090000000000000000000000000000009D
:103624000000000001000000020000000300000090
:1036340004000000010002000400060008000A0063
:103644000C0010002000400080000001232D302BCE
:103654002000686C4C00656667454647003031328F
:1036640033343536373839414243444546003031E6
:103674003233343536373839616263646566000045
:08368400D8CBFF7F010000001C
:04368C00E50000084D
:04369000BD00000871
:10369400040000200000000078000020E00000206A
:1036A40048010020000000000000000000000000AD
:1036B4000000000000000000000000000000000006
:1036C40000000000000000000000000000000000F6
:1036D40000000000000000000000000000000000E6
:0C36E4000024F4000400000001000000BD
:0400000508002DE5DD
:00000001FF
